{
  "contractName": "BaseTransactionType",
  "abi": [
    {
      "constant": false,
      "inputs": [],
      "name": "renounceOwnership",
      "outputs": [],
      "payable": false,
      "stateMutability": "nonpayable",
      "type": "function"
    },
    {
      "constant": true,
      "inputs": [],
      "name": "owner",
      "outputs": [
        {
          "name": "",
          "type": "address"
        }
      ],
      "payable": false,
      "stateMutability": "view",
      "type": "function"
    },
    {
      "constant": false,
      "inputs": [
        {
          "name": "_newOwner",
          "type": "address"
        }
      ],
      "name": "transferOwnership",
      "outputs": [],
      "payable": false,
      "stateMutability": "nonpayable",
      "type": "function"
    },
    {
      "anonymous": false,
      "inputs": [
        {
          "indexed": false,
          "name": "_user",
          "type": "address"
        },
        {
          "indexed": false,
          "name": "_txType",
          "type": "uint32"
        }
      ],
      "name": "ChangedTxType",
      "type": "event"
    },
    {
      "anonymous": false,
      "inputs": [
        {
          "indexed": false,
          "name": "_user",
          "type": "address[]"
        }
      ],
      "name": "ChangedUserList",
      "type": "event"
    },
    {
      "anonymous": false,
      "inputs": [
        {
          "indexed": true,
          "name": "previousOwner",
          "type": "address"
        }
      ],
      "name": "OwnershipRenounced",
      "type": "event"
    },
    {
      "anonymous": false,
      "inputs": [
        {
          "indexed": true,
          "name": "previousOwner",
          "type": "address"
        },
        {
          "indexed": true,
          "name": "newOwner",
          "type": "address"
        }
      ],
      "name": "OwnershipTransferred",
      "type": "event"
    },
    {
      "constant": false,
      "inputs": [
        {
          "name": "_user",
          "type": "address"
        },
        {
          "name": "_basicTx",
          "type": "bool"
        },
        {
          "name": "_callTx",
          "type": "bool"
        },
        {
          "name": "_createTx",
          "type": "bool"
        },
        {
          "name": "_privateTx",
          "type": "bool"
        }
      ],
      "name": "addUser",
      "outputs": [],
      "payable": false,
      "stateMutability": "nonpayable",
      "type": "function"
    },
    {
      "constant": false,
      "inputs": [
        {
          "name": "_user",
          "type": "address"
        },
        {
          "name": "_basicTx",
          "type": "bool"
        },
        {
          "name": "_callTx",
          "type": "bool"
        },
        {
          "name": "_createTx",
          "type": "bool"
        },
        {
          "name": "_privateTx",
          "type": "bool"
        }
      ],
      "name": "changeTxType",
      "outputs": [],
      "payable": false,
      "stateMutability": "nonpayable",
      "type": "function"
    },
    {
      "constant": false,
      "inputs": [
        {
          "name": "_user",
          "type": "address"
        }
      ],
      "name": "removeUser",
      "outputs": [],
      "payable": false,
      "stateMutability": "nonpayable",
      "type": "function"
    },
    {
      "constant": true,
      "inputs": [],
      "name": "getUserList",
      "outputs": [
        {
          "name": "",
          "type": "address[]"
        }
      ],
      "payable": false,
      "stateMutability": "view",
      "type": "function"
    },
    {
      "constant": true,
      "inputs": [
        {
          "name": "_user",
          "type": "address"
        }
      ],
      "name": "getTxType",
      "outputs": [
        {
          "name": "",
          "type": "uint32"
        }
      ],
      "payable": false,
      "stateMutability": "view",
      "type": "function"
    }
  ],
  "bytecode": "0x608060405260008060146101000a81548163ffffffff021916908363ffffffff16021790555060008060186101000a81548163ffffffff021916908363ffffffff160217905550600080601c6101000a81548163ffffffff021916908363ffffffff1602179055506000600160006101000a81548163ffffffff021916908363ffffffff160217905550336000806101000a81548173ffffffffffffffffffffffffffffffffffffffff021916908373ffffffffffffffffffffffffffffffffffffffff160217905550611582806100d86000396000f30060806040526004361061008e576000357c0100000000000000000000000000000000000000000000000000000000900463ffffffff16806329b86b931461009357806370976bd014610106578063715018a6146101695780638da5cb5b1461018057806398575188146101d7578063b85220431461021a578063c60a942414610286578063f2fde38b146102f9575b600080fd5b34801561009f57600080fd5b50610104600480360381019080803573ffffffffffffffffffffffffffffffffffffffff16906020019092919080351515906020019092919080351515906020019092919080351515906020019092919080351515906020019092919050505061033c565b005b34801561011257600080fd5b50610147600480360381019080803573ffffffffffffffffffffffffffffffffffffffff16906020019092919050505061077e565b604051808263ffffffff1663ffffffff16815260200191505060405180910390f35b34801561017557600080fd5b5061017e6107da565b005b34801561018c57600080fd5b506101956108dc565b604051808273ffffffffffffffffffffffffffffffffffffffff1673ffffffffffffffffffffffffffffffffffffffff16815260200191505060405180910390f35b3480156101e357600080fd5b50610218600480360381019080803573ffffffffffffffffffffffffffffffffffffffff169060200190929190505050610901565b005b34801561022657600080fd5b5061022f610d66565b6040518080602001828103825283818151815260200191508051906020019060200280838360005b83811015610272578082015181840152602081019050610257565b505050509050019250505060405180910390f35b34801561029257600080fd5b506102f7600480360381019080803573ffffffffffffffffffffffffffffffffffffffff169060200190929190803515159060200190929190803515159060200190929190803515159060200190929190803515159060200190929190505050610df4565b005b34801561030557600080fd5b5061033a600480360381019080803573ffffffffffffffffffffffffffffffffffffffff1690602001909291905050506113a4565b005b6000809054906101000a900473ffffffffffffffffffffffffffffffffffffffff1673ffffffffffffffffffffffffffffffffffffffff163373ffffffffffffffffffffffffffffffffffffffff1614151561039757600080fd5b84600080600260008473ffffffffffffffffffffffffffffffffffffffff1673ffffffffffffffffffffffffffffffffffffffff16815260200190815260200160002060000160009054906101000a900460ff169150600260008473ffffffffffffffffffffffffffffffffffffffff1673ffffffffffffffffffffffffffffffffffffffff16815260200190815260200160002060010154905081801561044457506003805490508111155b80156104b457508273ffffffffffffffffffffffffffffffffffffffff1660038281548110151561047157fe5b9060005260206000200160009054906101000a900473ffffffffffffffffffffffffffffffffffffffff1673ffffffffffffffffffffffffffffffffffffffff16145b15156104bf57600080fd5b86156104ec576001600060146101000a81548163ffffffff021916908363ffffffff16021790555061050e565b60008060146101000a81548163ffffffff021916908363ffffffff1602179055505b851561053b576002600060186101000a81548163ffffffff021916908363ffffffff16021790555061055d565b60008060186101000a81548163ffffffff021916908363ffffffff1602179055505b841561058a5760046000601c6101000a81548163ffffffff021916908363ffffffff1602179055506105ac565b600080601c6101000a81548163ffffffff021916908363ffffffff1602179055505b83156105d9576008600160006101000a81548163ffffffff021916908363ffffffff1602179055506105fc565b6000600160006101000a81548163ffffffff021916908363ffffffff1602179055505b600160009054906101000a900463ffffffff166000601c9054906101000a900463ffffffff16600060189054906101000a900463ffffffff16600060149054906101000a900463ffffffff16171717600260008a73ffffffffffffffffffffffffffffffffffffffff1673ffffffffffffffffffffffffffffffffffffffff16815260200190815260200160002060020160006101000a81548163ffffffff021916908363ffffffff1602179055507fa3ee29df28e06738449633956fed82e7eb42c85ff4b152b7da57cd73dd6e118a88600260008b73ffffffffffffffffffffffffffffffffffffffff1673ffffffffffffffffffffffffffffffffffffffff16815260200190815260200160002060020160009054906101000a900463ffffffff16604051808373ffffffffffffffffffffffffffffffffffffffff1673ffffffffffffffffffffffffffffffffffffffff1681526020018263ffffffff1663ffffffff1681526020019250505060405180910390a15050505050505050565b6000600260008373ffffffffffffffffffffffffffffffffffffffff1673ffffffffffffffffffffffffffffffffffffffff16815260200190815260200160002060020160009054906101000a900463ffffffff169050919050565b6000809054906101000a900473ffffffffffffffffffffffffffffffffffffffff1673ffffffffffffffffffffffffffffffffffffffff163373ffffffffffffffffffffffffffffffffffffffff1614151561083557600080fd5b6000809054906101000a900473ffffffffffffffffffffffffffffffffffffffff1673ffffffffffffffffffffffffffffffffffffffff167ff8df31144d9c2f0f6b59d69b8b98abd5459d07f2742c4df920b25aae33c6482060405160405180910390a260008060006101000a81548173ffffffffffffffffffffffffffffffffffffffff021916908373ffffffffffffffffffffffffffffffffffffffff160217905550565b6000809054906101000a900473ffffffffffffffffffffffffffffffffffffffff1681565b60008060009054906101000a900473ffffffffffffffffffffffffffffffffffffffff1673ffffffffffffffffffffffffffffffffffffffff163373ffffffffffffffffffffffffffffffffffffffff1614151561095e57600080fd5b81600080600260008473ffffffffffffffffffffffffffffffffffffffff1673ffffffffffffffffffffffffffffffffffffffff16815260200190815260200160002060000160009054906101000a900460ff169150600260008473ffffffffffffffffffffffffffffffffffffffff1673ffffffffffffffffffffffffffffffffffffffff168152602001908152602001600020600101549050818015610a0b57506003805490508111155b8015610a7b57508273ffffffffffffffffffffffffffffffffffffffff16600382815481101515610a3857fe5b9060005260206000200160009054906101000a900473ffffffffffffffffffffffffffffffffffffffff1673ffffffffffffffffffffffffffffffffffffffff16145b1515610a8657600080fd5b600260008673ffffffffffffffffffffffffffffffffffffffff1673ffffffffffffffffffffffffffffffffffffffff1681526020019081526020016000206001015493506003600160038054905003815481101515610ae257fe5b9060005260206000200160009054906101000a900473ffffffffffffffffffffffffffffffffffffffff16600385815481101515610b1c57fe5b9060005260206000200160006101000a81548173ffffffffffffffffffffffffffffffffffffffff021916908373ffffffffffffffffffffffffffffffffffffffff1602179055508360026000600387815481101515610b7857fe5b9060005260206000200160009054906101000a900473ffffffffffffffffffffffffffffffffffffffff1673ffffffffffffffffffffffffffffffffffffffff1673ffffffffffffffffffffffffffffffffffffffff168152602001908152602001600020600101819055506003600160038054905003815481101515610bfb57fe5b9060005260206000200160006101000a81549073ffffffffffffffffffffffffffffffffffffffff02191690556003805480919060019003610c3d9190611505565b50600260008673ffffffffffffffffffffffffffffffffffffffff1673ffffffffffffffffffffffffffffffffffffffff168152602001908152602001600020600080820160006101000a81549060ff021916905560018201600090556002820160006101000a81549063ffffffff021916905550507fc91abffdfcf015612e447e6b8bfdcb223ed81cb58cb74ebf02fb17d7883ab38b600360405180806020018281038252838181548152602001915080548015610d5157602002820191906000526020600020905b8160009054906101000a900473ffffffffffffffffffffffffffffffffffffffff1673ffffffffffffffffffffffffffffffffffffffff1681526020019060010190808311610d07575b50509250505060405180910390a15050505050565b60606003805480602002602001604051908101604052809291908181526020018280548015610dea57602002820191906000526020600020905b8160009054906101000a900473ffffffffffffffffffffffffffffffffffffffff1673ffffffffffffffffffffffffffffffffffffffff1681526020019060010190808311610da0575b5050505050905090565b6000809054906101000a900473ffffffffffffffffffffffffffffffffffffffff1673ffffffffffffffffffffffffffffffffffffffff163373ffffffffffffffffffffffffffffffffffffffff16141515610e4f57600080fd5b84600260008273ffffffffffffffffffffffffffffffffffffffff1673ffffffffffffffffffffffffffffffffffffffff16815260200190815260200160002060000160009054906101000a900460ff16151515610eac57600080fd5b6001600260008873ffffffffffffffffffffffffffffffffffffffff1673ffffffffffffffffffffffffffffffffffffffff16815260200190815260200160002060000160006101000a81548160ff021916908315150217905550600380549050600260008873ffffffffffffffffffffffffffffffffffffffff1673ffffffffffffffffffffffffffffffffffffffff168152602001908152602001600020600101819055508415610f80576001600060146101000a81548163ffffffff021916908363ffffffff160217905550610fa2565b60008060146101000a81548163ffffffff021916908363ffffffff1602179055505b8315610fcf576002600060186101000a81548163ffffffff021916908363ffffffff160217905550610ff1565b60008060186101000a81548163ffffffff021916908363ffffffff1602179055505b821561101e5760046000601c6101000a81548163ffffffff021916908363ffffffff160217905550611040565b600080601c6101000a81548163ffffffff021916908363ffffffff1602179055505b811561106d576008600160006101000a81548163ffffffff021916908363ffffffff160217905550611090565b6000600160006101000a81548163ffffffff021916908363ffffffff1602179055505b600160009054906101000a900463ffffffff166000601c9054906101000a900463ffffffff16600060189054906101000a900463ffffffff16600060149054906101000a900463ffffffff16171717600260008873ffffffffffffffffffffffffffffffffffffffff1673ffffffffffffffffffffffffffffffffffffffff16815260200190815260200160002060020160006101000a81548163ffffffff021916908363ffffffff16021790555060038690806001815401808255809150509060018203906000526020600020016000909192909190916101000a81548173ffffffffffffffffffffffffffffffffffffffff021916908373ffffffffffffffffffffffffffffffffffffffff160217905550507fc91abffdfcf015612e447e6b8bfdcb223ed81cb58cb74ebf02fb17d7883ab38b60036040518080602001828103825283818154815260200191508054801561124357602002820191906000526020600020905b8160009054906101000a900473ffffffffffffffffffffffffffffffffffffffff1673ffffffffffffffffffffffffffffffffffffffff16815260200190600101908083116111f9575b50509250505060405180910390a17fa3ee29df28e06738449633956fed82e7eb42c85ff4b152b7da57cd73dd6e118a600360016003805490500381548110151561128957fe5b9060005260206000200160009054906101000a900473ffffffffffffffffffffffffffffffffffffffff166002600060036001600380549050038154811015156112cf57fe5b9060005260206000200160009054906101000a900473ffffffffffffffffffffffffffffffffffffffff1673ffffffffffffffffffffffffffffffffffffffff1673ffffffffffffffffffffffffffffffffffffffff16815260200190815260200160002060020160009054906101000a900463ffffffff16604051808373ffffffffffffffffffffffffffffffffffffffff1673ffffffffffffffffffffffffffffffffffffffff1681526020018263ffffffff1663ffffffff1681526020019250505060405180910390a1505050505050565b6000809054906101000a900473ffffffffffffffffffffffffffffffffffffffff1673ffffffffffffffffffffffffffffffffffffffff163373ffffffffffffffffffffffffffffffffffffffff161415156113ff57600080fd5b6114088161140b565b50565b600073ffffffffffffffffffffffffffffffffffffffff168173ffffffffffffffffffffffffffffffffffffffff161415151561144757600080fd5b8073ffffffffffffffffffffffffffffffffffffffff166000809054906101000a900473ffffffffffffffffffffffffffffffffffffffff1673ffffffffffffffffffffffffffffffffffffffff167f8be0079c531659141344cd1fd0a4f28419497f9722a3daafe3b4186f6b6457e060405160405180910390a3806000806101000a81548173ffffffffffffffffffffffffffffffffffffffff021916908373ffffffffffffffffffffffffffffffffffffffff16021790555050565b81548183558181111561152c5781836000526020600020918201910161152b9190611531565b5b505050565b61155391905b8082111561154f576000816000905550600101611537565b5090565b905600a165627a7a723058204ec563d7688131ebfeddcb283788471198d569c2d88dff20eabeb1dc776dbf340029",
  "source": "pragma solidity ^0.4.24;\n\nimport \"./Ownable.sol\";\n\ncontract BaseTransactionType is Ownable {\n\n    event ChangedTxType(address _user, uint32 _txType);\n\n    event ChangedUserList(address[] _user);\n\n    /// Allowed transaction types mask\n    uint32 constant None = 0;\n    uint32 constant All = 0xffffffff;\n    uint32 constant Basic = 0x01;\n    uint32 constant Call = 0x02;\n    uint32 constant Create = 0x04;\n    uint32 constant Private = 0x08;\n\n    // Variables for allowed transaction types\n    uint32 basic = 0;\n    uint32 call = 0;\n    uint32 create = 0;\n    uint32 priv = 0;\n\n    struct AddressStatus {\n        bool isIn;\n        uint index;\n        uint32 txType;\n    }\n    \n    mapping(address => AddressStatus) status;\n    address[] permissionedUsers;\n\n    // Modifiers\n\n    modifier isPermissioned(address _user){\n        bool isIn = status[_user].isIn;\n        uint index = status[_user].index;\n\n        require(isIn && index <= permissionedUsers.length && permissionedUsers[index] == _user);\n        _;\n    }\n\n    modifier isNotPermissioned(address _user){\n        require(!status[_user].isIn);\n        _;\n    }\n    \n    // Add a new address to the mapping and set allowed TX type\n    function addUser(address _user, bool _basicTx, bool _callTx, bool _createTx, bool _privateTx) external onlyOwner isNotPermissioned(_user) {\n        \n        status[_user].isIn = true;\n        status[_user].index = permissionedUsers.length;\n        \n        if(_basicTx) {basic = Basic;} else {basic = 0;}\n        if(_callTx) {call = Call;} else {call = 0;}\n        if(_createTx) {create = Create;} else {create = 0;}\n        if(_privateTx) {priv = Private;} else {priv = 0;}\n\n        status[_user].txType = basic | call | create | priv;\n        permissionedUsers.push(_user);\n\n        emit ChangedUserList(permissionedUsers);\n        // Does this make sense? I could also just use _user... \n        emit ChangedTxType(permissionedUsers[permissionedUsers.length - 1], status[permissionedUsers[permissionedUsers.length - 1]].txType);\n    }\n\n    // Change TX type permissions of existing permissioned user\n    function changeTxType(address _user, bool _basicTx, bool _callTx, bool _createTx, bool _privateTx) external onlyOwner isPermissioned(_user) {\n        \n        if(_basicTx) {basic = Basic;} else {basic = 0;}\n        if(_callTx) {call = Call;} else {call = 0;}\n        if(_createTx) {create = Create;} else {create = 0;}\n        if(_privateTx) {priv = Private;} else {priv = 0;}\n\n        status[_user].txType = basic | call | create | priv;\n\n        emit ChangedTxType(_user, status[_user].txType);\n    }\n\n    // Remove user by moving last element to its slot and reseting status\n    function removeUser(address _user) external onlyOwner isPermissioned(_user) {\n        uint index = status[_user].index;\n        permissionedUsers[index] = permissionedUsers[permissionedUsers.length - 1];\n        status[permissionedUsers[index]].index = index;\n\n        delete permissionedUsers[permissionedUsers.length - 1];\n        permissionedUsers.length--;\n\n        delete status[_user];\n\n        emit ChangedUserList(permissionedUsers);\n    }\n\n    // Getters\n\n    function getUserList() external view returns(address[]){\n        return permissionedUsers;\n    }\n\n    function getTxType(address _user) external view returns(uint32) {\n        return status[_user].txType;\n    }\n\n    // allow transaction types (internal) gets called by allowedTxType()\n\n    function baseAllowedTxType(address _sender) internal returns(uint32){\n        if(!status[_sender].isIn) return 0x01 | 0x02;\n        else return status[_sender].txType;\n    }\n\n    \n\n\n\n}",
  "sourcePath": "/Users/Jonathan/txType/contracts/BaseTransactionType.sol",
  "compiler": {
    "name": "solc",
    "version": "0.4.24+commit.e67f0147.Emscripten.clang"
  },
  "schemaVersion": "2.0.1",
  "updatedAt": "2018-08-01T10:13:22.231Z"
}